:100000000C946C050C9494050C9494050C94940534
:100010000C9494050C9494050C9494050C949405FC
:100020000C9494050C9494050C943C090C94AB0925
:100030000C9494050C9494050C9494050C949405DC
:100040000C9494050C9494050C9494050C949405CC
:100050000C9494050C9494050C9494050C94DD0B6D
:100060000C9494050C9494050C9494050C949405AC
:100070000C9494050C9494050C9494050C9494059C
:100080000C9494050C9494050C9494050C9494058C
:100090000C9494050C9494050C9494050C9494057C
:1000A0000C9494050C9494050C94940500000000A5
:1000B000003E5B4F5B3E3E6B4F6B3E1C3E7C3E1CEE
:1000C000183C7E3C181C577D571C1C5E7F5E1C0034
:1000D000183C1800FFE7C3E7FF0018241800FFE7EB
:1000E000DBE7FF30483A060E2629792926407F05AE
:1000F0000507407F05253F5A3CE73C5A7F3E1C1CC4
:1001000008081C1C3E7F14227F22145F5F005F5F83
:1001100006097F017F006689956A6060606060946F
:10012000A2FFA29408047E040810207E2010080874
:100130002A1C08081C2A08081E101010100C1E0C7F
:100140001E0C30383E3830060E3E0E060000000011
:100150000000005F00000007000700147F147F14F8
:10016000242A7F2A1223130864623649562050003D
:1001700008070300001C2241000041221C002A1C29
:100180007F1C2A08083E0808008070300008080814
:100190000808000060600020100804023E51494534
:1001A0003E00427F400072494949462141494D3352
:1001B0001814127F1027454545393C4A49493141B9
:1001C000211109073649494936464949291E000087
:1001D00014000000403400000008142241141414DC
:1001E0001414004122140802015909063E415D59C8
:1001F0004E7C1211127C7F494949363E41414122D1
:100200007F4141413E7F494949417F090909013EFA
:10021000414151737F0808087F00417F4100204021
:10022000413F017F081422417F404040407F021C33
:10023000027F7F0408107F3E4141413E7F0909094A
:10024000063E4151215E7F09192946264949493216
:1002500003017F01033F4040403F1F2040201F3FDC
:100260004038403F63140814630304780403615961
:10027000494D43007F4141410204081020004141A3
:10028000417F04020102044040404040000307084F
:100290000020545478407F2844443838444444284B
:1002A000384444287F385454541800087E090218F2
:1002B000A4A49C787F0804047800447D400020407A
:1002C000403D007F1028440000417F40007C0478BE
:1002D00004787C080404783844444438FC18242406
:1002E0001818242418FC7C08040408485454542486
:1002F00004043F44243C4040207C1C2040201C3C03
:100300004030403C44281028444C9090907C4464F9
:10031000544C44000836410000007700000041368C
:10032000080002010204023C2623263C1EA1A16112
:10033000123A4040207A3854545559215555794144
:100340002154547841215554784020545579400C1B
:100350001E527212395555555939545454593955FC
:100360005454580000457C410002457D420001453F
:100370007C40F0292429F0F0282528F07C545545AC
:10038000002054547C547C0A097F4932494949323F
:100390003248484832324A4848303A4141217A3A54
:1003A00042402078009DA0A07D39444444393D401E
:1003B00040403D3C24FF2424487E4943662B2FFCCB
:1003C0002F2BFF0929F620C0887E09032054547979
:1003D000410000447D413048484A32384040227A4A
:1003E000007A0A0A727D0D19317D2629292F2826C7
:1003F0002929292630484D402038080808080808CF
:100400000808382F10C8ACBA2F102834FA00007B27
:10041000000008142A142222142A1408950022002D
:1004200095AA005500AAAA55AA55AA000000FF00E7
:10043000101010FF00141414FF001010FF00FF1024
:1004400010F010F0141414FC001414F700FF000056
:10045000FF00FF1414F404FC141417101F10101FD5
:10046000101F1414141F00101010F0000000001FC3
:10047000101010101F10101010F010000000FF10CE
:100480001010101010101010FF10000000FF1400CA
:1004900000FF00FF00001F10170000FC04F41414FC
:1004A0001710171414F404F40000FF00F7141414C8
:1004B00014141414F700F7141414171410101F1048
:1004C0001F141414F4141010F010F000001F101F6B
:1004D0000000001F14000000FC140000F010F010D9
:1004E00010FF10FF141414FF141010101F00000050
:1004F00000F010FFFFFFFFFFF0F0F0F0F0FFFFFF54
:100500000000000000FFFF0F0F0F0F0F38444438AA
:10051000447C2A2A3E147E02020606027E027E02E5
:1005200063554941633844443C04407E201E200604
:10053000027E020299A5E7A5991C2A492A1C4C7241
:1005400001724C304A4D4D303048784830BC625AC8
:10055000463D3E494949007E0101017E2A2A2A2A58
:100560002A44445F444440514A444040444A514034
:100570000000FF0103E080FF000008086B6B0836F5
:1005800012362436060F090F060000181800000066
:100590001010003040FF0101001F01011E00191D55
:1005A0001712003C3C3C3C0000000000F0F89C8E20
:1005B0008783878E9CF8F00000FEFF03030303038C
:1005C000070EFCF80000FEFF0303030303070EFC05
:1005D000F80000FFFF00000000000000FFFF000027
:1005E000FEFF8383838383C7EE7C380000F8FC0E14
:1005F00007030303070EFCF800003F7FE0C0808084
:10060000C0E07F3FFFFF01010101010101FFFF0089
:1006100000FFFF0C0C0C0C1C3E77E3C100007FFFB9
:10062000C0C0C0C0C0E0703F1F00001F3F70E0C0EE
:10063000C0C0E0703F1F00007FFFC1C1C1C1C1E366
:10064000773E1C00001F3F70E0C0C0C0E0703F1F3D
:10065000000000000001FFFF01000000D5F08D1434
:10066000A1C881CFD9F1AF2000FFFF03030303032B
:10067000030303030303030303030303030303034A
:10068000030303030303030303030303030303033A
:10069000030303030303030303030303030303032A
:1006A000030303030303030303030303030303031A
:1006B000030303030303030303030303030303030A
:1006C00003030303030303030303030303030303FA
:1006D00003030303030303030303030303030303EA
:1006E00003030303030303FFFFFFFF0000000000F9
:1006F00000000000000000000000000000000000FA
:1007000000000000000000000000000000000000E9
:1007100000000000000000000000000000000000D9
:1007200000000000000000000000000000000000C9
:1007300000000000000000000000000000000000B9
:1007400000000000000000000000000000000000A9
:100750000000000000000000000000000000000099
:1007600000000000000000FFFFFFFF00000000008D
:100770000000000000000000000000000000000079
:100780000000000000000000000000000000000069
:100790000000000000000000000000000000000059
:1007A0000000000000000000000000000000000049
:1007B0000000000000000000000000000000000039
:1007C0000000000000000000000000000000000029
:1007D0000000000000000000000000000000000019
:1007E00000000000000000FFFFFFFF00000000000D
:1007F00000000000000000000000000000000000F9
:1008000000000000000000000000000000000000E8
:1008100000000000000000000000000000000000D8
:1008200000000000000000000000000000000000C8
:1008300000000000000000000000000000000000B8
:1008400000000000000000000000000000000000A8
:100850000000000000000000000000000000000098
:1008600000000000000000FFFFFFFF00000000008C
:100870000000000000000000000000000000000078
:100880000000000000000000000000000000000068
:100890000000000000000000000000000000000058
:1008A0000000000000000000000000000000000048
:1008B0000000000000000000000000000000000038
:1008C0000000000000000000000000000000000028
:1008D0000000000000000000000000000000000018
:1008E00000000000000000FFFFFFFF00000000000C
:1008F00000000000000000000000000000000000F8
:1009000000000000000000000000000000000000E7
:1009100000000000000000000000000000000000D7
:1009200000000000000000000000000000000000C7
:1009300000000000000000000000000000000000B7
:1009400000000000000000000000000000000000A7
:100950000000000000000000000000000000000097
:1009600000000000000000FFFFFFFF00000000008B
:100970000000000000000000000000000000000077
:100980000000000000000000000000000000000067
:100990000000000000000000000000000000000057
:1009A0000000000000000000000000000000000047
:1009B0000000000000000000000000000000000037
:1009C0000000000000000000000000000000000027
:1009D0000000000000000000000000000000000017
:1009E00000000000000000FFFFFFFFC0C0C0C0C04B
:1009F000C0C0C0C0C0C0C0C0C0C0C0C0C0C0C0C0F7
:100A0000C0C0C0C0C0C0C0C0C0C0C0C0C0C0C0C0E6
:100A1000C0C0C0C0C0C0C0C0C0C0C0C0C0C0C0C0D6
:100A2000C0C0C0C0C0C0C0C0C0C0C0C0C0C0C0C0C6
:100A3000C0C0C0C0C0C0C0C0C0C0C0C0C0C0C0C0B6
:100A4000C0C0C0C0C0C0C0C0C0C0C0C0C0C0C0C0A6
:100A5000C0C0C0C0C0C0C0C0C0C0C0C0C0C0C0C096
:100A6000C0C0C0C0C0C0C0FFFF080B00020202002F
:100A70000009040000010202000005240010010525
:100A80002401010104240206052406000107058152
:100A90000310004009040100020A000000070502DB
:100AA000024000000705830240000004030904120D
:100AB000010002EF020140412336800001010203E0
:100AC0000141726475696E6F204C4C430041726441
:100AD00075626F7900005A0C11241FBECFEFDAE067
:100AE000DEBFCDBF11E0A0E0B1E0E0E0F0E202C087
:100AF00005900D92AA33B107D9F725E0AAE3B1E03A
:100B000001C01D92AB3BB207E1F715E0CCE6D5E0A2
:100B100004C02197FE010E94F80FCB36D107C9F718
:100B20000E94870C0C94FE0F0C940000E3E6F1E0A9
:100B3000A0E0B8E000800EBC8111012C1197A0FD4F
:100B4000FDCF0192B9F70DB408954F925F926F9265
:100B50007F928F929F92AF92BF92CF92DF92EF924D
:100B6000FF920F931F93CF93DF93802E912CF4016C
:100B7000E60FF71F1E161F060CF06EC060347105DD
:100B80000CF06AC030E0E62FE7707E2EF7E08F0EA3
:100B9000911CE3E095948794EA95E1F7F3E075956D
:100BA0006795FA95E1F7062E000C770BDB01B695F9
:100BB000BA2FAA27B795A795A80FB91FAD59BE4F51
:100BC000EA0150E040E0E0E8F0E07F01E81AF90ACD
:100BD0008A01060F171F083011050CF03DC00F3FAA
:100BE0008FEF18077CF190E080E05D01E0E8AE0E49
:100BF000B11CFC01EC0FFD1FE491F0E02F01072C6C
:100C000002C0440C551C0A94E2F70F3F1007A9F1EB
:100C10006D01C80ED91EF6016080642860827720BD
:100C200051F00730110539F06501C80ED91EF601E3
:100C30006080652860820196821793071CF4E8168D
:100C4000F906B9F64F5F5F4FA058BF4FC20FD31FD1
:100C50008416950609F0BCCFDF91CF911F910F91BB
:100C6000FF90EF90DF90CF90BF90AF909F908F90CC
:100C70007F906F905F904F9008957110D5CFDBCF2C
:100C8000FC0180916201882311F13FB7F89482E062
:100C90008093E9002091F200822F90E01816190647
:100CA00014F481E090E0882339F0289844E64093DA
:100CB00061014091F1004083222339F02091F2003C
:100CC000211103C02BE62093E8003FBF08958FEF6A
:100CD0009FEF08952FB7F89483E08093E9009091F7
:100CE000E800892F807295FF04C09091F20080E4A3
:100CF000891B2FBF08958091590181110DC082E099
:100D00008093550184E0809356011092580110920F
:100D1000570181E08093590185E591E00895CF93D3
:100D2000DF931F92CDB7DEB76983DC01ED91FC91B3
:100D30000280F381E02D41E050E0BE016F5F7F4F04
:100D400009950F90DF91CF91089583E08093E9009A
:100D50008091F200882319F08AE38093E8000895D7
:100D60000E946A0690E00895CF93DF931F92CDB75B
:100D7000DEB7FC018485958597FD08C02FEF3FEF16
:100D8000358724870F90DF91CF910895CE0101968A
:100D90000E944006019719F4898190E0F3CF8FEF0C
:100DA0009FEFF0CF0F931F93CF93DF931F92CDB799
:100DB000DEB78C01FC018485958597FF0BC0CE01C1
:100DC00001960E944006019771F4898190E0F80134
:100DD00095878487F801848595850F90DF91CF9161
:100DE0001F910F9108958FEF9FEFF1CFFC01848544
:100DF000958597FD0BC09FB7F89482E08093E9003A
:100E00008091F2009FBF90E0019608959FB7F894FB
:100E100082E08093E9008091F2009FBF90E0089506
:100E200040914F015091500120914D0130914E0160
:100E300042175307B4F49091E8009570E1F3909154
:100E4000E80092FD19C08093F10080914F019091CC
:100E5000500101968F739927892B19F48EEF809397
:100E6000E80080914F0190915001019690935001BC
:100E700080934F0181E0089580E00895DF92EF9222
:100E8000FF920F931F93CF93DF93D82E8A01EB012C
:100E90007B01E40EF51ECE15DF0559F0D7FE12C01A
:100EA000FE0184910E94100721968111F4CF0FEF6B
:100EB0001FEFC801DF91CF911F910F91FF90EF902D
:100EC000DF9008958881EECF0F931F93CF93DF9328
:100ED0001F92CDB7DEB782E0898342E450E069E635
:100EE0007AE080E80E943E070E947B06DC011296B1
:100EF0000D911C910115110589F0D801ED91FC911E
:100F00000280F381E02DBE016F5F7F4FC80109951C
:100F100097FD04C0F80100851185ECCF89810F9001
:100F2000DF91CF911F910F910895615030F0209182
:100F3000F100FC0120830196F8CF289884E6809385
:100F400061010895FC010E943908319728F0685129
:100F50007C4F8F4F9F4FF9CFAB01FC010E943908A6
:100F6000641775078E079F07C8F308958F929F92A5
:100F7000AF92BF92CF92DF92EF92FF920F931F93A7
:100F8000CF93DF936C017B018A0180910C01882350
:100F900009F45AC080916201882309F455C08091F8
:100FA000540180FF05C08091E00082608093E000E2
:100FB000E801B12C8AEFA82E93E0892E2AE3922E25
:100FC000209711F4BB20C9F10E946A06811108C064
:100FD000AA94AA20C9F181E090E00E94A207F0CF74
:100FE0008C171D0611F00CF08C2F9FB7F89480928F
:100FF000E9002091E80025FD02C09FBFE1CF282F26
:1010000030E0C21BD30BF701815020F04191409397
:10101000F100FACFE20EF31EBB2021F09092E8001F
:10102000B12CEBCF8091E80085FDE7CF9092E800EE
:10103000BB24B394209709F3F3CF5D9884E68093A3
:101040005301101611063CF081E090E0F601938305
:10105000828310E000E0C801DF91CF911F910F91D2
:10106000FF90EF90DF90CF90BF90AF909F908F90C8
:101070000895A9E4B1E02FB7F8947D918D919C91EA
:1010800066B52FBFA89B05C06F3F18F47F5F8F4FD9
:101090009F4F22E0660F771F881F991F2A95D1F76F
:1010A0000895AF92BF92CF92DF92EF92FF920F938B
:1010B0001F93CF93DF936C017B018B01040F151FEE
:1010C000EB015E01AE18BF08C017D10759F0699156
:1010D000D601ED91FC910190F081E02DC6010995BA
:1010E000892B79F7C501DF91CF911F910F91FF9067
:1010F000EF90DF90CF90BF90AF90089590E00C9468
:10110000A2078FB18095807F669B88601C9B84605E
:10111000089590E1282F81E061FD84E060FD880F53
:1011200062FD8295687F969FD0011124A20FAD5970
:10113000BE4F0C90082A40FF08260C9208958F920B
:101140009F92AF92BF92CF92DF92EF92FF920F9356
:101150001F93CF93DF936D3089F0C0904001D09002
:1011600041016A30D1F410923F0110923E0188E0B3
:10117000C80ED11CD0924101C092400181E090E0A4
:10118000DF91CF911F910F91FF90EF90DF90CF9063
:10119000BF90AF909F908F90089500913E01109165
:1011A0003F01E5E06E9FE0011124C455DF4F580177
:1011B000F12CF5E0E12CFF1629F0CE010196FE019D
:1011C000E490EC01912C812CF0E8AF16B10458F4B6
:1011D000B601680D791D6034710528F44E2D4170FB
:1011E000C5010E948908E6948FEF881A980AE8E002
:1011F0008E16910449F7F394FFEFAF1ABF0A86E009
:10120000F812D7CF0A5F1F4F10933F0100933E01A2
:10121000B5CFCF93C82F0E948108982F9C2381E0DF
:101220009C1380E0CF91089580E00C949605462FA2
:10123000477066956695669590E8699FB0011124A0
:101240006D597E4F860F972F911DFC01808190E094
:1012500021E030E0042E02C0220F331F0A94E2F78F
:101260008223932302C0959587954A95E2F70895C6
:10127000089590E080E008951F920F920FB60F92AC
:1012800011248F939F938091E1009091E100937FCF
:101290009093E10083FF0FC01092E90091E09093DA
:1012A000EB001092EC0092E39093ED00109262013B
:1012B00098E09093F00082FF22C093E09093E900C1
:1012C0009091F200992319F09AE39093E80090919D
:1012D0005301992341F09091530191509093530100
:1012E000911101C05D9A90916101992341F0909113
:1012F0006101915090936101911101C0289A84FF7E
:1013000018C08091E2008E7E81608093E20080911F
:10131000E1008F7E8093E100809154018E7E806198
:10132000809354019F918F910F900FBE0F901F904B
:10133000189580FFF7CF8091E2008E7E80618093C8
:10134000E2008091E1008E7E8093E1008091540163
:101350008E7E8160E5CF1F920F920FB60F921124FF
:10136000CF92DF92EF92FF920F931F932F933F93B1
:101370004F935F936F937F938F939F93AF93BF939D
:10138000EF93FF93CF93DF93CDB7DEB76C97DEBFBC
:10139000CDBF1092E9008091E80083FF25C068E08E
:1013A000CE0145960E94950782EF8093E8008D89D3
:1013B00087FF39C09091E80090FFFCCF982F90767E
:1013C00009F034C19E894F89588D2F89F88C91116D
:1013D00031C0803861F5809152018093F100109204
:1013E000F1008EEF8093E8006C960FB6F894DEBFA4
:1013F0000FBECDBFDF91CF91FF91EF91BF91AF9124
:101400009F918F917F916F915F914F913F912F911C
:101410001F910F91FF90EF90DF90CF900F900FBE34
:101420000F901F9018959EEF9093E800C7CF1092F1
:10143000F100D5CF913059F48111D3CF413051050E
:1014400081F6809152018D7F80935201CACF9330F3
:1014500049F48111C6CF4130510519F680915201EE
:101460008260F2CF953041F48091E80080FFFCCF9C
:1014700020682093E300B5CF963009F0A9C00B8D0A
:101480001C8D22E01092E9001092500110924F0141
:10149000F2122EC010924E0110924D010E9464076C
:1014A0001F8299E09983FA8291E09E8390EA98875F
:1014B0009AEF998720914F0130915001275F3F4F5C
:1014C0003C832B838D831092E9001092500110927F
:1014D0004F0110934E0100934D0149E050E0BE01D1
:1014E0006F5F7F4F80E00E943E070E94640779CFC4
:1014F00010934E0100934D010E947B06DC01129671
:101500000D911C910115110509F451C1D801ED91FE
:10151000FC910480F581E02DBE016B5E7F4FC80118
:101520000995009709F03EC1F80100851185EACFC1
:10153000F3E0FF120EC08F89882309F440C0823087
:1015400061F440E867E08DEC9AE00E94270C81117D
:1015500048CF81E28093EB0047CF813029F440E807
:101560006BE081EC9AE0F1CF833099F70E947B0623
:10157000DC011296ED90FC908E010F5F1F4F680109
:10158000E114F10479F0D701ED91FC910680F78127
:10159000E02DB801C7010995080F111DF701E0847E
:1015A000F184EECFD8011C92F60101900020E9F7FA
:1015B0003197BF016C197D0940E0C601C6CF6BEAC7
:1015C0007AE0FB01449150E080E80E943E0709CF99
:1015D000973009F4BECF983021F481E08093F10078
:1015E00000CF993009F0FDCE837009F0B2CFE6E16B
:1015F000F1E081E031E096E32191222371F08093C4
:10160000E9003093EB00DF0111972C912093EC005F
:101610009093ED008F5F873079F78EE78093EA0033
:101620001092EA008F8980936201DBCE8B8D9C8DB6
:101630001092E9001092500110924F0190934E01C8
:1016400080934D01898D811192C08E899D89913A37
:1016500049F4813209F07DCF47E050E065E071E068
:1016600080E0B3CF913209F074CF833269F48F896F
:10167000988DB0E0A0E08093010190930201A093C7
:101680000301B0930401ADCE803269F48091E8008B
:1016900082FFFCCF67E085E091E00E9495078BEF29
:1016A0008093E8009ECE823209F09BCE8F89809392
:1016B0000C01EEEFFFE7859194918B3F9C4D51F12A
:1016C000E0E0F8E08091050190910601A09107010A
:1016D000B0910801803B9440A105B105F1F48091DF
:1016E0000C0180FD1AC0EE3F8AE0F80789F587E714
:1016F00097E791838083809160008093510188E116
:101700009BE00FB6F894A895809360000FBE90936D
:10171000600067CEEEEFFAE0D5CF80819181873708
:10172000974709F05ECEA89580916000886180930C
:1017300060008091510180936000EE3F2AE0F20743
:1017400089F08091FE0A9091FF0A9183808349CEAF
:10175000808191818737980751F29093FF0A809397
:10176000FE0AC5CF1092FF0A1092FE0A3ACE0E94DE
:101770007B06DC0112960D911C910115110509F4EF
:10178000E8CED801ED91FC910190F081E02DBE01F1
:101790006B5E7F4FC8010995811123CEF80100854A
:1017A0001185EBCF181619060CF41BCED2CEF1E042
:1017B000FF12BECE6FEA7AE004CF0F920FB68F937E
:1017C0009F93EF93FF93809144018D5F8D3708F0D5
:1017D0008D5780934401E5E4F1E080818E4F808352
:1017E00091819F4F918382818F4F828383818F4F1D
:1017F0008383E9E4F1E080818F5F808381818F4F73
:10180000818382818F4F828383818F4F83838FB1C6
:101810008F6066991C9B88278F3681F480914301E5
:10182000981B963068F0E0E0F8E087E780838183DA
:1018300088E180936000F0936000FFCF90934301B4
:10184000FF91EF919F918F910FBE0F901895EF929E
:10185000FF920F931F93CF93DF93F82E192FE62E4D
:10186000042F81E0860F880F0E94100783E00E94FA
:101870001007CF2DD12FEC0EFD2EF11CCE15DF055C
:10188000B9F007FF13C0FE0184910E941007182FC2
:1018900080E00E941007812321968111EFCFDF9114
:1018A000CF911F910F91FF90EF9008958881EDCF18
:1018B00081E0F5CFE3E6F5E01382128288EE93E053
:1018C000A0E0B0E084839583A683B78380E291E0B3
:1018D000918380838FEF9FEF95878487E7EBF5E017
:1018E0001382128282E391E09183808380910F01C1
:1018F000909110019093B6058093B50580910D01EC
:1019000090910E019093B4058093B3050895789457
:1019100083E084BD83E085BD81E080936E00E1E8D3
:10192000F0E083E08083E0E881E08083E1E983E028
:101930008083E0E981E08083E1EC87E08083E3EC71
:1019400081E08083E0EC82E08083E2EC81E08083D0
:10195000EAE787E0808380688083109262011092BA
:101960005201109254018091D70081608093D7007A
:1019700080EA8093D80089B5806189BD89B582608D
:1019800089BD09B400FEFDCF81E090E00E94A2076E
:101990008091D8008F7C80618093D8008091E00096
:1019A000807F8093E0008091E1008E7E8093E10053
:1019B0008DE08093E200559A209A81EC80937C0020
:1019C00081EF85B987EE84B984E38BB984EF8AB956
:1019D000769A6E9880EF81BB10BA80E58CBD81E06D
:1019E0008DBD85E00E947E085F9A85E00E947E089A
:1019F0005C98ECE5F6E085918EBD00000DB407FE25
:101A0000FDCFE936C1F75C9A81E88093640081E0FC
:101A1000809365000E94140980E80E9409098823C8
:101A2000A9F05C9885EA8EBD00000DB407FEFDCFDD
:101A30005C9A2E982F982D988091640080628093F4
:101A4000640081E083BF889513BEFCCF84E00E94D0
:101A500009098823B9F12D9884E80E94090988238F
:101A6000A1F02D9A88EC0E947E082F986FEF82E0FB
:101A700090E00E94830F84EF91E00E94A2072F9ACA
:101A800084E80E9409098111FBCF84E10E940909C1
:101A90008823A1F02D9A88EC0E947E082E9860E0A1
:101AA00082E090E00E94830F84EF91E00E94A20701
:101AB0002E9A84E10E9409098111FBCF88EC0E94D3
:101AC0007E08C4CF2D9A82E090E00E947B0F88238D
:101AD000E1F13E9A3F9A81E090E00E947B0F182F3F
:101AE000147081FF0BC011112E98C1EFDFEF80E45D
:101AF0000E940909882361F12E9A2F9A82E30E949D
:101B00007E080E9481088111F9CF81E28093000153
:101B1000992493948AE3C82E81E0D82E93E6A92EC7
:101B200091E0B92E20E0E22E20E0F22E882483946A
:101B3000C0913C01CC2309F461C010923C01E11436
:101B4000F104B1F30E940000F3CF3E983F98C3CF59
:101B5000112329F0C430D10511F42E9A2F9881E079
:101B60000E94960500E128E54CEA55E0BE0184E1BB
:101B700090E00E94A5050E9414098FE00E947E0853
:101B80002196C931D10509F0B2CF112311F02F9A56
:101B90002D9880E991E00E94A2072D9A81E090E0C3
:101BA0000E947B0F80FFAACF8AE090E00E947B0F0B
:101BB0009FEF980F9E3F08F0A1CF22E330E03093D3
:101BC0003F0120933E0128E330E030934101209310
:101BD0004001CAE0D0E0682F87EB95E00E949F08A3
:101BE0002196CE010E947B0FC031D105A1F70E9442
:101BF000140988EE93E00E94A20780CF90914501DE
:101C000080913D01292F281B822F209100018217EE
:101C100040F48F5F821708F092CF93BE889513BE71
:101C20008ECF80923C0190933D01F601808191819D
:101C30000196808391830E94810880934201F5017F
:101C4000C111CFEF8FEFC193C193C193C193815065
:101C5000D0F7109241011092400110923F01109272
:101C60003E0100E420E849E656E070E060E090E0E4
:101C700080E00E94A5050E94230F80E80E940909C8
:101C8000882349F080910D0190910E010197909366
:101C90000E0180930D0100910D0110910E01C09174
:101CA0000F01D0911001602F8C2F0E9417098130F5
:101CB00049F48091B3059091B40590930E018093FF
:101CC0000D0112C080E10E940909882331F00F5FE5
:101CD0001F4F10930E0100930D0160910D018C2F89
:101CE0000E941709813029F380E20E9409098823A4
:101CF00029F02197D0931001C0930F0170900D012E
:101D000060900E01C0910F01D0911001672D8C2FB2
:101D10000E941709813049F48091B5059091B6056C
:101D20009093100180930F0111C080E40E94090973
:101D3000882329F02196D0931001C0930F01672DBD
:101D400080910F010E941709813031F300910F013A
:101D5000109110010038110514F00FE710E017FF83
:101D600002C010E000E01093100100930F01C72D96
:101D7000D62DC034D10514F0CFE3D0E01C161D06DB
:101D800014F0C1E0D0E0D0930E01C0930D0141E00A
:101D9000BE01C8010E9489081093B6050093B505DD
:101DA000D093B405C093B3050E941409C8CE8F9296
:101DB0009F92AF92BF92CF92DF92EF92FF92CF931A
:101DC000DF93EC01688179818A819B8161157105BE
:101DD0008105910521F464E279ED8BE597E02DE131
:101DE00033EF41E050E00E94950F49015A019B01F9
:101DF000AC01A7EAB1E40E94B40F6B017C01ACEE28
:101E0000B4EFA50194010E94C20FC60ED71EE81EB2
:101E1000F91EF7FE06C081E0C81AD108E10880E883
:101E2000F80AC882D982EA82FB82C701B6019F778D
:101E3000DF91CF91FF90EF90DF90CF90BF90AF9068
:101E40009F908F9008958F929F92AF92BF92CF9262
:101E5000DF92EF92FF9260911101709112018091D7
:101E6000130190911401611571058105910521F40B
:101E700064E279ED8BE597E02DE133EF41E050E04E
:101E80000E94950F49015A019B01AC01A7EAB1E4F8
:101E90000E94B40F6B017C01ACEEB4EFA50194017C
:101EA0000E94C20FC60ED71EE81EF91EF7FE06C01E
:101EB00081E0C81AD108E10880E8F80AC09211014F
:101EC000D0921201E0921301F0921401C701B60101
:101ED0009F77FF90EF90DF90CF90BF90AF909F9053
:101EE0008F900895609311017093120180931301F4
:101EF000909314010895F999FECF92BD81BDF89A8F
:101F0000992780B50895262FF999FECF92BD81BDFE
:101F1000F89A019700B4021639F01FBA20BD0FB627
:101F2000F894FA9AF99A0FBE0895052E97FB1EF4BD
:101F300000940E94AC0F57FD07D00E94C70F07FC0A
:101F400003D04EF40C94AC0F5095409530952195EC
:101F50003F4F4F4F5F4F08959095809570956195D5
:101F60007F4F8F4F9F4F08950E94E90FA59F900DBF
:101F7000B49F900DA49F800D911D11240895B7FF6B
:101F80000C94B40F0E94B40F821B930B0895A1E22E
:101F90001A2EAA1BBB1BFD010DC0AA1FBB1FEE1FE3
:101FA000FF1FA217B307E407F50720F0A21BB30B2E
:101FB000E40BF50B661F771F881F991F1A9469F7AA
:101FC00060957095809590959B01AC01BD01CF0106
:101FD0000895A29FB001B39FC001A39F700D811D02
:101FE0001124911DB29F700D811D1124911D089522
:101FF000EE0FFF1F0590F491E02D0994F894FFCFA8
:1020000010FFFFFFFF00E1000000000000030003DD
:10201000000100000000C1808100000000000000FD
:102020008F06B607B006A506F606B406D20600006F
:0A20300000009F0851083909380923
:00000001FF
